:020000041000EA
:1000000000B5324B212058609868022188439860DF
:10001000D860186158612E4B002199600221596106
:100020000121F02299502B49196001219960352056
:1000300000F044F80222904214D00621196600F024
:1000400034F8196E01211966002018661A6600F04E
:100050002CF8196E196E196E052000F02FF8012189
:100060000842F9D1002199601B49196000215960AB
:100070001A491B48016001219960EB211966A021F2
:10008000196600F012F800219960164914480160C1
:100090000121996001BC002800D000471248134993
:1000A000086003C880F30888084703B5996A0420EC
:1000B0000142FBD001200142F8D103BD02B5186610
:1000C0001866FFF7F2FF186E186E02BD00000240BE
:1000D000000000180000070000035F00212200005C
:1000E000F4000018222000A00001001008ED00E03C
:1000F00000000000000000000000000074B24E7A12
:1001000000200420F7010010C3010010C5010010F9
:10011000C1010010C1010010C1010010C101001097
:10012000C1010010C1010010C1010010C701001081
:10013000C1010010C1010010C9010010CB01001065
:10014000CD010010CD010010CD010010CD01001037
:10015000CD010010CD010010CD010010CD01001027
:10016000CD010010CD010010CD010010CD01001017
:10017000CD010010CD010010CD010010CD01001007
:10018000CD010010CD010010CD010010CD010010F7
:10019000CD010010CD010010CD010010CD010010E7
:1001A000CD010010CD010010CD010010CD010010D7
:1001B000CD010010CD010010CD010010CD010010C7
:1001C00000BE00BE00BE00BE00BE00BEEFF3058054
:1001D000103800BEF2EB887118AB001038AB00107D
:1001E0003402001090A31AE700201F49086006C8D7
:1001F00081F3088810471D48006800282FD10DA4FE
:100200000ECC002902D000F012F8F9E71849194A7B
:10021000002000E001C19142FCD1174988471749ED
:1002200088471749884700BEFDE701C901C29A42C5
:10023000FBD3704738AB0010C000002030170020FF
:10024000A8C100100000042000000420A8C1001074
:10025000001004200010042000000000704709482E
:1002600003F05CFF0047000008ED00E0000000D054
:100270003017002020250020AD2E0010350A001078
:10028000692E00105756000006005250ABB3605361
:10029000C0A3001006005250861C0302D0A3001019
:1002A000060052505422A29DD8A3001005005250BF
:1002B000DE65F468A8C10010F8B5C0460448054BD7
:1002C00010B5834203D0044B002B00D0984710BDDB
:1002D00030170020301700200000000006480749B2
:1002E000091A8B10C90FC91810B5491003D0044B57
:1002F000002B00D0984710BD301700203017002089
:100300000000000010B5074C2378002B09D1FFF73F
:10031000D5FF054B002B02D0044800E000BF0123AD
:10032000237010BD38180020000000001894001041
:10033000054B10B5002B03D00449054800E000BF71
:10034000FFF7CCFF10BDC046000000003C180020A5
:1003500018940010002912DB002A12DB042912DC99
:10036000042A12DC042906D0042A06D0920052186E
:100370005200105A04E00139F6E7013AF6E700208E
:1003800070470020FCE70020FAE70020F8E70000B3
:1003900070B504000D00FA21890003F0EBFE0600A1
:1003A000FA218900280003F0E5FE0D4B9C420EDB8C
:1003B0009D420EDB0B4B9C420DDC9D420DDC83000D
:1003C000181840008619B600074BF05800E00120CD
:1003D00070BD0120FCE70120FAE70120F8E7C046E4
:1003E00019FCFFFF0F270000F80B002010B5FA21C1
:1003F000890003F0BFFE02004001801A80008018CF
:10040000C00010BD10B5FA21890003F0B3FE421CF4
:100410005001801A80008018C00010BDF0B5DE4683
:1004200057464E464546E0B589B0041E00919346B6
:10043000019331D0B42864D05A2800D198E08723A2
:100440005B00984200D1CAE00290431E0493B22B95
:1004500000D975E1CB4D6E683000FFF7C7FF07008C
:10046000361AC94B73439846A3009946C74B1B687D
:100470004A469E583100404603F07CFE040031009D
:10048000C34803F077FE8246286804193800250027
:1004900000265446AA46DEE0BA4B1F683800FFF734
:1004A000B1FF0600C71B6001001B80000019C000DF
:1004B00005003018B34B59680130FFF769FF002879
:1004C00001D10134EFE7EB19009A1360AD4C2368BA
:1004D000D819281801306168FFF75AFF5B46186089
:1004E0000023019A137064682000FFF77FFF241A2D
:1004F000129B1C6009B03CBC90469946A246AB4694
:10050000F0BDA04B1F683800FFF770FF06003F1AD0
:10051000002500E00135A805401B8001401940007E
:100520004019C00004003018964B59680138FFF795
:100530002FFF0028EED06B015B1B9B005D19ED00C7
:10054000ED19009B1D608F4D2B68D81B20180138BA
:100550006968FFF71DFF5B4618600023019A13705E
:100560006C682000FFF74EFF001B129B1860C1E76C
:10057000844B5F683800FFF739FF06003F1A0025FB
:1005800000E00135A905491B8901491949004919AC
:10059000C9000C00711801397A4B1868FFF7F8FE92
:1005A0000028EED06B015B1B9B005D19ED00ED197F
:1005B000009B1D60734D6B68D91B61180139286859
:1005C000FFF7E6FE5B4618600123019A13702C6862
:1005D0002000FFF70BFF241A129B1C608AE7694B6F
:1005E0005F683800FFF70EFF0600C71B0025690192
:1005F000491B89004919C9000C0071180131614B70
:100600001868FFF7C5FE002801D10135EFE7E319AF
:10061000009A13605B4D6B68D91961180131286825
:10062000FFF7B6FE5B4618600123019A13702C6831
:100630002000FFF7E7FE001B129B18605AE7013607
:10064000350065435544B005801B8001801940008A
:100650008019C000381843011B1A9B001818C000ED
:100660000138FA21890003F085FD01002800FFF719
:100670008FFE0028E3D00690464B1B684A469C58E4
:100680002100404603F076FD04F084F849004B0851
:10069000190004F097F8070021003D4803F06AFDB7
:1006A00004F078F849004B08190004F08BF8464331
:1006B000F3190393029F3B005B3B0593B22B00D9D8
:1006C000ECE0304C26683000FFF790FE8146321A8D
:1006D0000792B90002912D4B1B685F587A431000B6
:1006E000294903F047FD06000A21380003F042FDC6
:1006F000824660688046B0444646484600274C46DD
:10070000C146A846554643011B1A9B001818C00055
:100710000138FA21890003F02DFD4946FFF738FE24
:1007200000287AD10137B805C01B8001C0194000EC
:10073000C019C00020183B006B439946B144E2E762
:10074000104D6E683000FFF75DFE0700861B0E4BF4
:1007500073439846A30099460C4B1B684A469E5823
:100760003100404603F006FD04003100084803F064
:1007700001FD82462868041B3800250000265446E7
:10078000AA4614E030220020102700002C2200206E
:10079000809698004022002001363500654353467C
:1007A0005D1B7001801B80008019C0003818430158
:1007B0001B1A9B001818C0000130FA21890003F0B1
:1007C000D9FC01002800FFF7E3FD0028E4D00690E3
:1007D000764B1B684A469C582100404603F0CAFCF1
:1007E00003F0D8FF04F02AF847007F082100704882
:1007F00003F0C0FC03F0CEFF04F020F844006408CE
:10080000300005F009F8211C04F0FDFF391C04F04C
:10081000DFFF05F023F803904CE7040045464E4601
:100820006448079B5843644B1B68029A9B5899463F
:10083000190003F09FFC03F0ADFF03F0FFFF400041
:100840004308984649465A4803F094FC03F0A2FF37
:1008500003F0F4FF400043089946380004F0DCFF41
:10086000494604F0D0FF414604F0B2FF04F0F6FF21
:10087000039B834200DB81E0009A13605B46069A8B
:100880001A600123019A1370049BB22B6FD82800C1
:10089000FFF7ACFD2D1A129B1D602BE6474C266816
:1008A0003000FFF7AFFD8146821B0792029B990043
:1008B0000291434B1B685F587A4310003D4903F097
:1008C00059FC06000A21380003F054FC8246606897
:1008D000831B1E00484600274C469946A8465546AD
:1008E00043011B1A9B001818C0000130FA2189002F
:1008F00003F040FC4946FFF74BFD00280BD10137C0
:100900007801C01B8000C019C00020183B006B4359
:10091000F31A9946E4E7040045464E462548079BEE
:100920005843254B1B68029A9B589946190003F0BF
:1009300021FC03F02FFF03F081FF4000430898469D
:1009400049461B4803F016FC03F024FF03F076FF32
:10095000400043089946380004F05EFF494604F021
:1009600052FF414604F034FF04F078FF80E728008E
:10097000FFF748FD451B129B1D60BBE5009B1860FF
:100980005B461C600023019A1370059BB22B06D8AE
:100990003000FFF737FD861B129B1E60AAE5300072
:1009A000FFF724FD361A129B1E60A3E540220020AB
:1009B0008096980010270000482200203022002056
:1009C0002C22002003001F2800D91F233F2900D913
:1009D0003F211F2A00D91F221002F8225201104085
:1009E000DB00FF2213401843CB08F83A1A401043AB
:1009F000490389B20843704770B506000023E1221D
:100A0000D201934204DA5A000949B1520133F6E7A0
:100A10001400E1231B029C4209DA650075190722C4
:100A20000F210720FFF7CEFF28800134F1E770BDCA
:100A3000BFFDFFFFF0B5DE4657464E464546E0B5E2
:100A400089B007F077FF002007F0A8FEC14BC24A2B
:100A50001A605A6000229A60C832DA60B424E40056
:100A6000200004F0D9FFBD4B1860200004F0D4FF33
:100A7000BB4B1860200004F0CFFFBA4B1860002475
:100A800037E0200003F086FE0022B74B03F0F3FDB1
:100A9000B64AB74B03F00DFE06000F0003F0FAFE56
:100AA0000022B44B03F005FEA3009846AB4B1D6833
:100AB000454403F087FE28603000390003F0D4FE7F
:100AC0000022AC4B03F0F5FDA54B1D68454403F037
:100AD00079FE28603000390003F0F2FE0022A54BB9
:100AE00003F0E7FD9F4B1D68454403F06BFE286053
:100AF0000134B4235B009C42C3DBF020800004F08F
:100B00008BFF9D4B186000241CE0200003F042FE88
:100B100000229A4B03F0AFFD0022994B03F099FDA0
:100B200004F004F8914A924B03F0A5FD00228E4B8D
:100B300003F0BFFDA300904A1568ED1803F042FED4
:100B400028600134EF2CE0DD022007F079FF12204D
:100B500007F076FF102007F073FF142007F070FFF6
:100B6000112007F06DFF132007F06AFFE12040021B
:100B700004F052FF8346002304E05A00814958469E
:100B800081520133E12212029342F6DB584607F00C
:100B90003BFE08E113006822FF329A609BE1693056
:100BA000FF30A3E0784B9946D2E0002A22DB3900DF
:100BB0004846FFF7CFFBEB0F5B195B105B427833C6
:100BC0001B191A01D31A1B0143445B005A46D05229
:100BD0000134A54210DD079EFA21300003F0CAFA65
:100BE0000700A000290003F0C5FA0200F936DCDA9C
:100BF0000437DAE70432DAE7EE0F75196D1078354D
:100C00002E000BE039006148FFF7A4FB33019B1B6A
:100C10001B0143445B005A46D0520136EF2E55DC8F
:100C2000310078395A4803F0A5FA05004046783873
:100C30006843782103F09EFA0400464FBB689B008E
:100C40009A46474B1B6852469B589946180060438A
:100C5000504903F08FFA0390404B1B6852469B5853
:100C60009A466B4318004B4903F084FA039B9C4659
:100C7000844463460393604252465043454903F01F
:100C800079FA040048466843424903F073FA201891
:100C9000039B7A689D1A3C6824182800FFF7A6FB7E
:100CA0002D1A2000FFF7A2FB241AFA21280003F0D6
:100CB00061FA0700FA21200003F05CFA0200F9351E
:100CC00000DA0437F9349DDA04329BE701239C46AD
:100CD000E0444346EF2B63DC1E4B986843469C0080
:100CE000254B1B681B59C01800D558E7B4235B007F
:100CF000984201DB6938FF3807AB00930B2302AA47
:100D00009446634406AA05A9FFF788FB1A4B1B68A3
:100D10001B59DA179B185340114A12689B009858C8
:100D2000059B58431B4903F025FA010005901A481A
:100D300003F020FA0500F02800DDF0250B2302AABD
:100D4000944663441B78002B00D12BE7134B994644
:100D500000243EE7302200209411000040220020B1
:100D6000482200202C22002000806640504552542A
:100D7000FB2109400088C3404422002000005E405F
:100D80000000F03F00FFFFFFA80D0020C80D00206D
:100D900060EA000010270000C0D40100880D002088
:100DA000584607F031FD022007F066FD002819D1F2
:100DB0004C4CE668A3689D004B4B1B685859704328
:100DC0004A4903F0D7F923689C4660442060484BA9
:100DD0001B6858597043474903F0CCF963689C4637
:100DE00060446060122007F047FD002819D13D4C97
:100DF000E668A3689D003C4B1B68585970433D4909
:100E000003F0B8F923689C4660442060384B1B68A7
:100E100058597043354903F0ADF963689C46604406
:100E20006060142007F028FD002819D12D4CE668D9
:100E3000A3689D002E4B1B68585970432D4903F041
:100E400099F923689C4660442060274B1B685859D9
:100E50007043284903F08EF963689C4660446060E3
:100E6000102007F009FD002819D11E4CE668A36880
:100E70009D001F4B1B68585970431C4903F07AF9B9
:100E800023689C4660442060174B1B685859704388
:100E9000164903F06FF963689C4660446060112056
:100EA00007F0EAFC00280AD10E4A936805339360E4
:100EB000B4225200934202DB0A4B00229A601320B4
:100EC00007F0DAFC002806D1064A9368053B9360D8
:100ED000002B00DA5EE65846FFF78EFD00239846A9
:100EE000F7E6C046302200204822002010270000EC
:100EF00040220020F0D8FFFF10B58300084A944636
:100F000063441C6840226240C02414408022520185
:100F100013431C60C000034B9C466044416010BDFD
:100F200004C001400040014080000B4B9C466044DF
:100F300000290DD00823002A0CD004221343026894
:100F400053400C221340802252011043036070472B
:100F50000023F0E70022F1E704C0014010B50123AF
:100F60008340D0221206936293610521FFF7C4FFEC
:100F700010BD0000034B1B6802201840431E98411F
:100F8000C0B2704700C00640EFF3108072B6034B4A
:100F90001B68002BFBD0BFF35F8F70472C0100D084
:100FA000BFF35F8F024B00221A6080F310887047F6
:100FB0002C0100D0F8B506000C001500FFF7E4FF87
:100FC000E308F718F15C07222240012393400B420B
:100FD00005D1DBB20B433B70FFF7E2FFF8BD210008
:100FE000280001F0DFFFF0B583B006000191140086
:100FF0001F00FFF7C9FFBC420ED8E308F518F35CE9
:101000000721214001228A401A4201D00134F2E72F
:10101000D2B21A432A7001E001246442FFF7C0FFF4
:10102000002C02DB200003B0F0BD019B002BF9D0A7
:10103000089801F0B7FF000000231F2B08D8054ACD
:101040009A189200BFF35F8F002111600133F4E71B
:101050007047C04640000034054A1078431CDBB29C
:101060001370172B02D9130010221A707047C04654
:10107000E80D002000B583B00100044B00931F234E
:1010800018220348FFF7AFFF03B000BD189400100B
:10109000241D0020074B9B68103080001950BFF3BF
:1010A0005F8FBFF35F8F044B0021196082F31088BC
:1010B0007047C04600ED00E0240100D010B5091AC9
:1010C0000B1F0A4A94466144094A914208D8DA073C
:1010D00006D45B105B055B0D0648184380B210BD5B
:1010E000054B064AA321064801F0C2FEFC0700009A
:1010F000FE0F000000E0FFFF349400108496001003
:101100006494001010B5091A04394C08090B08D171
:101110004905490D064A11430180064B234343808C
:1011200010BD054B054AAB21054801F0A1FEC046A4
:1011300000F0FFFF00F8FFFFB09400109096001041
:101140006494001001238340034A10681840431E32
:101150009841C0B27047C04600E100E0002904D0C9
:10116000034B1860034B18607047034B1860FBE794
:1011700080E200E000E100E080E100E010B5012342
:1011800083401800FFF7EAFF10BD000001238340F1
:10119000014A13607047C04600E200E0024B9B68C2
:1011A00010308000C058704700ED00E010B5FFF728
:1011B000F5FF002805D0054BC01A2F2803D80120C1
:1011C00010BD0020FCE70020FAE7C046EC0D00202F
:1011D00070B504000D00EFF3108672B60C4B1B685F
:1011E000002BFBD0BFF35F8F2000FFF7D7FF094B29
:1011F000984201D0A84205D1320029002000FFF713
:1012000049FF70BD044B054A8621054801F030FEB8
:10121000240100D0CD010010C09400106896001089
:1012200064940010F0B5DE4657464E464546E0B59C
:1012300089B0814601911500EFF3108A72B6744BA4
:101240001B68002BFBD0BFF35F8F724B0027DF576B
:10125000002F40DB7C00E419A4006F48241806220C
:10126000A2566C4B1A706D4B9A684B4610339B001C
:10127000D35898461E001B1A2F2B38D9684B984517
:101280002FD105AE674B33807B009B46D819800079
:10129000614B9846404402306349FFF70FFF70806E
:1012A000624BB380FF23B371F571019BB3605F4460
:1012B000BF0047440ECE0EC701231C43A046524632
:1012C00041464846FFF7E6FE09B03CBC90469946C9
:1012D000A246AB46F0BD564B564AD721564801F0C0
:1012E000C7FD564B534ADE21534801F0C1FDC043B0
:1012F00040440C2102F066FF002912D101239E43D5
:10130000B34633000026DA79AA4211D9062159568C
:1013100000290CDB4A00521892001E003E4B9B181D
:10132000F1E7474B434AEA21434801F0A1FD1E0083
:10133000002E3AD005AB434A1A80813A5A800623E0
:10134000F3560293002B17DA3F4805AB9B46988073
:10135000029A9A71DD71019A0792301D2100FFF700
:10136000ADFEB080B7717B00DB199B002A4FFF18E0
:101370005B4607CB07C7A2E77800C0198000264B61
:10138000C0180430321DB388D90A1C2907D1590569
:101390004915023149005118FFF790FED5E72B4B54
:1013A0002B4AB121244801F063FD05AE1D4B33806B
:1013B0007B000293D8198000174A904602004244ED
:1013C0000392901C1849FFF779FE7080039A101D54
:1013D0005946FFF773FEB0801E4B5A464146521ADB
:1013E000524153431B0DB371F571019AB260029BD8
:1013F0009C466744BF0047440ECE0EC7114B5A4669
:101400001380813B538001231C43A04657E7C0460D
:10141000240100D025220020EC0D002000ED00E08A
:10142000CD01001000A1FFFF1C0E002001BDFFFF39
:10143000F8940010B89600106494001020950010E5
:10144000489500100148000001BD0000BC95001047
:10145000A8960010AAAA0000F0B5CE46474680B56F
:1014600083B006000D00EFF3108872B6564B1B6870
:10147000002BFBD0BFF35F8F544B9A6834001034BD
:10148000A300D758524B9F4207D0AF4200D198E0FB
:101490000197504BFB1A2F2B09D9424639003000D7
:1014A000FFF7F8FD03B00CBC90469946F0BD300044
:1014B000FFF748FE814600213000FFF75FFEBFF3D3
:1014C0005F8FEFF30581002901D08C4211D10123F8
:1014D000019C9C430022A368AB4212D00622A25674
:1014E000002A0DDB53009B189B002200394CE418A6
:1014F000F1E73621384B394AFF31394801F0B8FC61
:101500002200AB4256D106256557002D38DB6B0013
:101510005B199A002F4B9B189A68A260DA79E271E6
:1015200006229A56A2719B795BB2002B0FDA2D48E6
:10153000A0806B005B199B00264AD3182A4A1178B9
:101540009971157049463000FFF718FEA5E7201D78
:101550006B005B199B001F4A9B181A1D9B88D90AB8
:101560001C2907D159054915023149005118FFF7C7
:10157000A5FDDDE71D4B1E4AB121194801F078FC9D
:10158000002912D1002A0ED0FF239371194B9380AA
:10159000154A1378A371184B0E49641A64416343CA
:1015A0001B0D1370CEE70A4FF2E7201D1349FFF71A
:1015B000A9FDC7E76A21124B084AFF31084801F02C
:1015C00057FC034F69E7C046240100D000ED00E05E
:1015D000CD010010EC0D0020D4950010D096001025
:1015E0006494001001BD000025220020BC9500106D
:1015F000A896001001BDFFFFAAAA0000260E002039
:1016000008960010F8B5012101432E4BCB1A2F2B61
:1016100028D8EFF30583002B2BD0EFF3108572B69B
:10162000294A1268002AFBD0BFF35F8F274A0400C3
:10163000244EA41B64416243120D54B2244A9268A2
:101640009B00D2588A421BD00022032A32D8530072
:101650009B189B001B49CB189B795BB2A3421FD000
:101660000132F2E7C7211B4B1B4A49001B4801F01E
:10167000FFFB92211A4B184AFF31184801F0F8FB82
:10168000134A92681749D150174B1A7882711C700F
:10169000BFF35F8F0C4B00221A6085F31088F8BDF2
:1016A0000E005300991889007118FF278F710F4A97
:1016B0008A80E9E7D1210E4B074A4900074801F02B
:1016C000D7FBC046EC0D0020240100D0AAAA0000E0
:1016D00000ED00E010960010E496001064940010F5
:1016E00038960010CD0100102522002001BDFFFF1B
:1016F000449600100022044B02E0044902C3013268
:10170000072AFAD97047C04600E400E08080808054
:1017100000B583B00100064B009305230022054865
:10172000FFF761FC002801DB1F23181A03B000BD7E
:101730004C9600102A220020024B9C4661448900EE
:10174000016070474000003410B50400FFF784FCCE
:1017500001002000FFF7F0FFFF232371BFF35F8F2D
:1017600010BD10B50400FFF777FC01002000FFF763
:10177000E3FFFF23237100236371BFF35F8F10BD6D
:10178000034B9C46614489000160BFF35F8F704743
:101790004000003410B504000120FFF76BFC01008D
:1017A0002000FFF7EDFF10BD70B505000C0008002C
:1017B00000F0DAFE0949200000F01AFEFFF74CFCA9
:1017C000074B9C466044800068602C75D0231B0644
:1017D0001B786B75A400034BE55070BDED1A00102B
:1017E00040000034D82100200A4B1A68EFF3108122
:1017F00072B61368002BFCD0BFF35F8F054B1B68DC
:10180000BFF35F8F00221A6081F3108840BF002071
:1018100000217047F421002010B5002922D0036870
:101820001B7B99421ED8174B9C4661440901836873
:101830009C4661440C684968002A19D003681B7BE8
:101840009A4215D883680F488446624412019A1858
:1018500010685368020001208B4201D80ED000208E
:10186000C0B210BD084B094A3C21094801F000FBF9
:10187000054B064A3C21064801F0FAFAA242EFD88D
:10188000EDE7C046FFFFFF0FA4980010249B001057
:101890005C98001010B500291ED0037B99421BD81C
:1018A0004B005B18033B0468A4466344002919D02D
:1018B000002A1DD0914221D0002A25D0047BA242CB
:1018C00022D80468500080180338201881701978D5
:1018D00000291FD11A7010BD104B114A6821114800
:1018E00001F0C6FA104B114A6F310E4801F0C0FAF0
:1018F0000F4B0E4A70210B4801F0BAFA0D4B0B4A00
:101900007121084801F0B4FA044B054A68210548E2
:1019100001F0AEFA41701A70DDE7C046C8980010B9
:10192000E49A0010E498001040990010F09A00101A
:101930004C9900105899001070B506000D00140065
:10194000002914D0002A14D08068736898470028B2
:1019500006D0220029003000FFF79CFF280007E096
:101960002A0021003000FFF795FF200000E0100062
:1019700070BD0800FCE70000F0B583B005000092E0
:1019800001930AAB1C780BAB1F78002C26D00368A0
:101990005A7B944207D10123002B19D1002C3BD153
:1019A000200003B0F0BD002C0CD01A7B944209D863
:1019B0001A6863001B19033BD3189B78002BEBD0EC
:1019C0000123E9E73E4B3F4A68213F4801F050FAC6
:1019D0003E4B3F4A67213F4801F04AFA03689C7B2F
:1019E000002CDBD012D01A7B94420FD8620012195F
:1019F000033A19688C46624451789973002900D1E2
:101A0000D9730023937053701370C7E72C4B2D4A82
:101A100068212D4801F02CFA002C3AD02B681B7B52
:101A20009C4236D82C4BE3181B01AA6894466344A9
:101A3000009A1A60019A5A60089A9A60099ADA60C4
:101A40002E68002C2BD030D0337B9C422DD86300E5
:101A50001B19033B32689446634400229A705A7003
:101A60001A70717B22003000FFF766FF70738442AA
:101A700000D095E7287D009A019B00F001FD061E2D
:101A800001D0002F17D00C9B002B00D188E71E70CF
:101A900086E7124B124A3C210E4801F0E9F9114B3E
:101AA000114AA521084801F0E3F9054B054A6821D0
:101AB000054801F0DDF92868210000F019FFE2E790
:101AC000C8980010E49A0010E49800107099001073
:101AD0005C9B00105C980010FFFFFF0FA4980010A3
:101AE000249B001058980010049B0010F0B5DE46AF
:101AF00057464E464546E0B58BB009900023089303
:101B00008200B54BD658370052E0B44BB44A3F215F
:101B1000B44801F0ADF9B44BB44A3C21B44801F0EB
:101B2000A7F9002901D1002869D10021404600F021
:101B3000D5FEA04219D12A686B6806920793AB685C
:101B40009846EB689A464346002B14D0002C18D0D8
:101B50003B681B7B9C4214D8631EFA68D35C0893D5
:101B60001B0218433861002015E0A24BA24A8E21C7
:101B70009F4801F07DF9A14B9F4A92219C4801F0BA
:101B800077F9994B9E4A4121994801F071F9002358
:101B90009A46984600207B68BFF35F8F00221A6048
:101BA00086F310884346002B32D1002800D10CE187
:101BB00000F000FC02000B1EA7DB002000210690B5
:101BC00007917868EFF3108672B601680029FCD09F
:101BD000BFF35F8F396888464C7B002CD7D09AD0F2
:101BE000097B8C4297D8874965182D01B9688C46C6
:101BF000654428686968801A9941002991DD2A683E
:101C00006B68099800F03CFC00239A469846C2E7AE
:101C1000089B1B022343994651461800C047050004
:101C20000E007A68EFF3108B72B6136859424B417D
:101C3000D9B2002BF9D1BFF35F8F002E1EDB002E2F
:101C400046DD3B69002B47D04B456DD100F0B2FB20
:101C500002000B1E6EDB52197341002B70DB002B50
:101C600072DB0021049101310391029451460191EC
:101C7000414600913800FFF77FFE4CE03B69002BA6
:101C8000DDD04B4514D1069A079B521BB341002B64
:101C900014DB002B16DB0021049101310391029427
:101CA00051460191414600913800FFF765FE32E050
:101CB000554B514AA1214E4801F0DAF80122524217
:101CC000524BE6E7454B464A3F21464801F0D0F8E3
:101CD000002E01D1002DB4D13B68002C50D05A7B8E
:101CE000944237D1012100294AD1DA7B002A4DD113
:101CF0009A7B002A03D1DA7B002A5AD19C73DC73C9
:101D0000002C5CD03B681B7B9C4258D8FA68013C95
:101D1000135D0133135500233B617A68BFF35F8F76
:101D200013608BF3108843E7374B334AA4213048C4
:101D300001F09EF8294B2A4A3F212A4801F098F8E1
:101D400001225242314B8AE7244B254A3F21254844
:101D500001F08EF8002C0DD01A7B94420AD8620054
:101D60001219033A1868844662449278002ABAD05D
:101D70000121B8E7264B274A6821274801F078F867
:101D8000264B274AF621244801F072F8002A0AD08F
:101D9000197B8A4207D851008A18033A19688C4681
:101DA00062445470A4E71A4B1A4A68211A4801F099
:101DB0005FF81C4B1A4AFB21174801F059F80A4BEF
:101DC0000F4A41210A4801F053F80BB03CBC904641
:101DD0009946A246AB46F0BDD8210020649700107A
:101DE000CC9A001080970010A4980010249B00103B
:101DF0005C98001098990010749B0010B099001026
:101E0000309B0010FFFFFF0FBC990010FFFFFF7F0A
:101E1000C8980010E49A0010E4980010F899001097
:101E2000149B00101C9A001010B50C4B5B68002B23
:101E300004D00A210A48FFF77FFC10BD074C23009D
:101E4000084A1021206800F059FC032000F0A6FA8F
:101E500003212000FFF7A8FCEBE7C046340E00206A
:101E6000F42100201918001010B5064B5B68002BF8
:101E700001D0044810BD044B044A5E21044800F020
:101E8000F7FFC046340E0020309A0010449B00102B
:101E90005C980010F0B5DE4657464E464546E0B524
:101EA0008BB0804616001F00149B9A46159B9946DE
:101EB00016AB1B789B461F2302AA9446634400225C
:101EC0001A702CE0002809D042461268127B90421A
:101ED00004D8421E4146C9688A5C42E0404B414AF0
:101EE0004121414800F0C4FF0798002B6FD05B46AA
:101EF000002B6CD04946D04704000D0003000B4373
:101F000000D16BE0002940DB00F054FA06000F1E00
:101F10004BDB36196F41002F4DDB002F4FDB434663
:101F20005A68EFF3108472B6136859424B41D9B224
:101F30000791002BF8D1BFF35F8F1F3302AA94469D
:101F4000634404930023039302934B460193534647
:101F5000009332003B004046FFF70EFD031EB1D157
:101F6000020041464968BFF35F8F00250D6084F38E
:101F70001088002B29D01F2302A98C4663441B78AC
:101F8000002BB1D112021043AFE7361BAF41002F37
:101F900007DB002FC3DA154B154A3F21154800F027
:101FA00067FF01267642144FF3E7104B104A3F219A
:101FB000104800F05DFF012676420F4FADE70B4B56
:101FC0000B4A3F210B4800F053FF012040420BB069
:101FD0003CBC90469946A246AB46F0BD0798F6E752
:101FE000A4980010309B00105C98001064970010BB
:101FF000CC9A001080970010FFFFFF7FF8B5040017
:10200000002900D162E04268EFF3108572B61368D0
:1020100058424341D8B2002BF9D1BFF35F8FCBB206
:102020002268567BB3421BD10120002848D020698A
:1020300088422BD0090AC9B2002B2ED02068007B21
:1020400083422AD8581EE668305C88422BD0002094
:102050006368BFF35F8F00221A6085F31088F8BDB4
:10206000002B0DD0167BB3420AD85E00F618033E53
:102070001768BC466644B678002ED6D00120D4E757
:10208000134B144A6821144800F0F2FE2C21134B24
:10209000134AFF31134800F0EBFE134B134A412162
:1020A000104800F0E5FE1900100000F021FC0028A7
:1020B000CED199210E4B0A4A49000A4800F0D8FEB9
:1020C00023698B42C4D100232361C1E70020C6E706
:1020D000C8980010E49A0010E4980010549A001078
:1020E000909B00105C980010A4980010309B00108A
:1020F000789A0010407D7047F0B587B006000F0059
:10210000EFF30583002B1FD106246442E517A419C1
:102110007D418D4202D803D1844201D9002400259B
:10212000002D14DB0494059500F044F902000B1E09
:1021300013DBA41A9D41002D17DC14D030003900A8
:1021400000F044F907B0F0BD234800F02BFF234B0B
:10215000234A3F21234800F08BFE204B204A3F2199
:10216000204800F085FE002CE8D0FFF77DFE00231C
:10217000029301931C4B0093049A059BFFF78AFE80
:10218000002818DADAE7002300E00023002BD5D17D
:10219000164B1A68EFF3108172B61368002BFCD04F
:1021A000BFF35F8F114B1B68BFF35F8F00221A6074
:1021B00081F3108820BF0499059A0D4B5B6A9A42FF
:1021C000E3D80B48806A884203D29A42DBD00123CD
:1021D000DCE70123DAE7C0467C9A00106497001020
:1021E000CC9A001080970010E9170010F42100200D
:1021F0000040054070B504000D0000F0DBF802005F
:102200000B1E0ADB200029008018594100290ADB37
:1022100000290CDBFFF770FF70BD084B084A3F2117
:10222000084800F025FE012040420749F0E7034B33
:10223000034A3F21034800F01BFEC046649700108C
:10224000CC9A001080970010FFFFFF7F10B5FA2294
:1022500092000023002103F099FAFFF7CBFF10BD95
:1022600070B584B005000C00EFF30583002B12D08D
:10227000244B5B6A994209D8224A926A824208D268
:10228000994201D0012002E0002000E0002004B0CB
:1022900070BD0120FBE7FFF7E7FD002302930193E8
:1022A000194B00932A002300FFF7F4FD061E11DCF2
:1022B000144B5B6A9C4209D8124A926AAA4207D21E
:1022C0009C4201D00120E2E70020E0E70020DEE7A9
:1022D0000120DCE720BFFFF7C7FD3100FFF78EFECE
:1022E000084B5B6A9C4209D8064A926AAA4207D206
:1022F0009C4201D00120CAE70020C8E70020C6E7C1
:102300000120C4E700400540E917001070B5EFF365
:1023100005801038EFF3108472B61A4B1B68002B3F
:10232000FBD0BFF35F8F01221300834016494B633C
:1023300016490B60164909780D00C5402A4214D091
:10234000114A556A8200134E9259954206D3820073
:10235000114D525999430E4B197007E00A4A031D5B
:102360009B0099589950002200E00022BFF35F8F34
:10237000044B0021196084F31088002A00D0904794
:1023800070BDC046280100D0004005403C700540AB
:1023900029220020002200200C1C002010B5010082
:1023A000024A0348FEF706FE10BDC046A89B001077
:1023B00024220020044B5B6A034A906A1900536A86
:1023C0009942F9D17047C04600400540074B5B6A0F
:1023D0008B4204D2054B5B6AFAE7044B5B6A8B4283
:1023E00003D1024B9B6A8342F7D3704700400540FC
:1023F00070B504000D00EFF3108672B61B4B1B681E
:10240000002BFBD0BFF35F8F002D1CD02000FEF708
:10241000C5FE174B83420BD019002000FEF7D8FEF3
:1024200001212000FEF7AAFE0123A340114A1360F8
:10243000A400114BE550BFF35F8F0C4B00221A60D4
:1024400086F3108870BDA2000B4B0021D1500122F1
:10245000A2400A490B7893430B7005492000FEF710
:10246000FBFF00212000FEF789FEE4E7280100D0F1
:102470000D230010386005400C1C0020292200208C
:10248000F0B5DE4600B584B00400150001921E00D0
:102490000293FFF78FFF03958E4202D84ED18542FB
:1024A0004CD9EFF3108B72B6274B1B68002BFBD077
:1024B000BFF35F8F254A17780125A540EBB23B4358
:1024C0001370234B5D63221D92000199D150A2002D
:1024D0002049029850501B6A2B4212D11C4B1B6C96
:1024E0002B4208D00020BFF35F8F174B00221A60E9
:1024F0008BF3108823E0184B184AC521184800F0C8
:10250000B7FCFFF757FF8E4214D802D1039B8342DA
:1025100010D80E4B1B78BB420ED00D4B1D625D6375
:102520001F2004400123A3400E4A1360074B1F7075
:102530001E38D8E70020D6E70120D4E7012004B0F8
:1025400004BC9346F0BDC046280100D029220020DB
:102550000040054000220020CC9B0010409C001051
:10256000F09B001080E200E010B5EFF3108472B62B
:102570000A4B1B68002BFBD0BFF35F8F0123834006
:10258000074A136207490A789A430A70BFF35F8FBC
:10259000024B00221A6084F3108810BD280100D07D
:1025A000004005402922002010B500291ED0037BE1
:1025B00099421BD84B005B18033B0468A446634454
:1025C000002919D0002A1DD0914221D0002A25D0FF
:1025D000047BA24222D804685000801803382018D7
:1025E0008170197800291FD11A7010BD104B114A43
:1025F0006821114800F03CFC104B114A6F310E4825
:1026000000F036FC0F4B0E4A70210B4800F030FCF6
:102610000D4B0B4A7121084800F02AFC044B054A77
:102620006821054800F024FC41701A70DDE7C046BF
:10263000C8980010189D0010E498001040990010F0
:10264000249D00104C9900105899001070B5060098
:102650000D001400002914D0002A14D0806873687B
:102660009847002806D0220029003000FFF79CFF81
:10267000280007E02A0021003000FFF795FF200026
:1026800000E0100070BD0800FCE7000010B500235A
:10269000437301338373037BC3730123027B9A4229
:1026A00014D9002B0CD0027B934209D85A00D218BF
:1026B000033A01688C4662440133DBB25370EDE7A4
:1026C0000B4B0C4A68210C4800F0D2FB002A09D0C1
:1026D000924207D8016853009A18033A8A180023D7
:1026E000537010BD024B034A6821034800F0C0FB41
:1026F000C8980010189D0010E498001010B50173E0
:1027000042608360FFF7C2FF10BD000070B5040097
:10271000081E00D170BD002934D0237B994231D8E6
:102720004B005B18033B2268944663445A78002AA6
:10273000F0D02DD0237B9A422AD853009B18033B1C
:1027400021688C4663445D7800215970002825D0AB
:10275000237B984222D843001B18033B21688C46F8
:1027600063440021597001002000FFF76FFF06004D
:1027700029002000FFF7CAFF020031002000FFF708
:1027800065FFC7E7084B094A6821094800F070FB5C
:10279000054B064A6821064800F06AFB024B034AD3
:1027A0006821034800F064FBC8980010189D0010D1
:1027B000E498001070B505000C00160000292FD019
:1027C00034D0037B994231D84B005B18033B02683D
:1027D000944663445A78002A2ED19A78002A31D13F
:1027E0001978FFF793FF0300002E0AD0EA7B002A36
:1027F0002ED1AA7B002A03D1EA7B002A3BD1AC73FD
:10280000EC73002B3DD1002C4FD02B7B9C424CD83D
:102810002B6861000C19033C1C190023637070BD08
:10282000254B264A3821264800F022FB254B264A14
:102830006821264800F01CFB254B204A3A212048FD
:1028400000F016FB234B1D4A3B211D4800F010FBF6
:10285000002A0AD0297B8A4207D851008A18033AF5
:1028600029688C4662445470C3E7164B164A6821A7
:10287000164800F0FDFA184B104A4221104800F0AB
:10288000F7FA002B0BD02A7B934208D843001B1881
:10289000033B2A689446634400229A70B3E7094BCD
:1028A000094A6821094800F0E3FA064B064A682104
:1028B000064800F0DDFAC0465C9C0010389D001010
:1028C000649C0010C8980010189D0010E498001037
:1028D000AC9C0010D49C00101C9A001070B5040031
:1028E0000A00457B2900FFF765FF6073280070BD73
:1028F00070B50400002966D0437B8B420ED00029BE
:1029000011D0037B99420ED84B005B18033B026841
:10291000D0188378002B0CD1002055E00121FFF75F
:10292000DDFF012050E0294B294A6821294800F0A9
:102930009FFA002B1FD0227B93421CD825685A0097
:10294000D318033BEA18EB5C8B421AD0002B1BD048
:10295000227B934218D85A00D318033B2268D2181E
:1029600053788B4216D0002BF0D11B4B1B4A6B21A6
:102970001B4800F07DFA154B154A6821154800F0F8
:1029800077FA4378137007E0104B114A6821114819
:1029900000F06EFA43785370002383704370012275
:1029A0002000FFF707FF0200617B814205D0200075
:1029B000FFF74CFE6073012006E00A4B074A7121C5
:1029C000074800F055FA002070BDC046C8980010B6
:1029D000189D0010E4980010449600104C9D0010C3
:1029E000649C0010F89C0010F8B5DE4657464E4631
:1029F0004546E0B505000F0092461E000A9B9E4228
:102A000050D3330E994636020A9A002330004946C5
:102A100001F016FC80466C006419A4002F4B9C4604
:102A200064446368834200D260602B1FDBB29B4624
:102A3000012B3DD9C0239B012343802212011A6040
:102A4000AB00274A9958002907D0506901F0BAFB1A
:102A5000431C5800C0180338FDD253465A0123685E
:102A60005A40E0231A4080235B0123431A605A46F0
:102A7000012A28D980239B012343802212011A6056
:102A800043466360424600233000494601F0D8FBCC
:102A9000AD00134B585101203CBC90469946A246CC
:102AA000AB46F8BD0F4B104A3321104800F0E0F957
:102AB000012FBFD1C0239B01234303221A60A368C7
:102AC000DB07FCD5C9E72168794003220A401A6078
:102AD000A3680122BA401A42FAD0CBE70080004036
:102AE000281D0020649D0010CC9D0010789D0010D2
:102AF00030B583B00C2000F013F9FEF73BFA002844
:102B00000DD00023092B05D899002D4A2D48885057
:102B10000133F7E72A4B2C4A5A6203B030BD2B4BE6
:102B200000229A6700F06EF9294B01221A60274BA8
:102B30005B6C012BFBD1274B03221A60234B9B6B51
:102B4000012BFBD1013300930433234A0121234895
:102B500000F054F805230093214A0121214800F098
:102B60004DF8214B0093002202210420FFF73CFF87
:102B70001E4D00952B00002201210520FFF734FF98
:102B8000104C00942300002200210720FFF72CFFA7
:102B900000942300002200210820FFF725FF0A4BA4
:102BA00000932300002200210920FFF71DFF00955C
:102BB0002B00002200210620FFF716FFADE7C046DC
:102BC000281D0020006CDC021BB7000000800040C4
:102BD0003CB0004030B00040002F685900800240F7
:102BE000008C864700C00240001BB70040597307A5
:102BF0008000014BC0587047281D0020F0B5C64624
:102C000000B504000E0090461D00384801F0DAFAC5
:102C10000700374A4244374B9A423AD801004046AF
:102C200001F0D0FA0200103A98235B009A4236D89D
:102C30006B1E062B39D8069B013B062B35D8434625
:102C40001A09BA4237D32D04069B1F032F4323686A
:102C5000002B36DB284B9C4244D080256D01274B4E
:102C60001D60274B1D60274A92682B009343FAD1C1
:102C70002660A060221DC0239B01134321221A60FD
:102C80002268002AFCDAE76008221A6004BC904639
:102C9000F0BD1D4B1D4A11211D4800F0E9F81D4BE8
:102CA0001A4A19211A4800F0E3F81B4B174A1C2155
:102CB000174800F0DDF8194B144A2321144800F09E
:102CC000D7F822683F231340B342C3D1A3681B0542
:102CD0001B0D8342BED1E368EE22D2021340BB42F9
:102CE000B8D1D3E78025AD01B9E7C046001BB700D6
:102CF00080E84BD380F8A93200C0024000E00040D9
:102D000000F0004000C00040DC9D00100C9F00104F
:102D10003C9E0010889E0010A49E0010F09E0010A3
:102D200080239B000343014AD36270470080054023
:102D3000024B1A68024B5A607047C046C8210020F7
:102D40000080054010B50200164B8020C0051860B9
:102D5000154B1648186000290AD0154BE021C9040C
:102D60001960002A09D1124B802212061A6010BD88
:102D70000C4BE021C9041960F3E75001801A800070
:102D8000801800010B4B186080235B04984202D32B
:102D9000084B094A1A60FFF7CBFF054B8022D2058A
:102DA0001A60E4E700B0054008200140FCFF010084
:102DB00000A00540C8210020FFFFFF0010B5030060
:102DC00010000C4A8024E4051460002B0DD0012271
:102DD0001343094A094CD461094C5C4014625162A6
:102DE00093620021FFF7AEFF10BD034B0022DA61B2
:102DF000F7E7C04600B0054000800540D3C007B0EB
:102E00002D3FF84F064BAA2212011A602F22DA60DA
:102E1000044B054A1A60024B5B68002BFBDA7047D3
:102E2000004002400060024000B0FA0000BEFDE732
:102E300003000A4A1268002A08D0084A1068C3181A
:102E4000074A9A4206D3054A13607047034A054968
:102E50001160F2E701204042F7E7C046C41D0020A0
:102E6000000004202025002010B5FFF7DFFF000040
:102E700010B582B00C001900002A0CD0084B002AB3
:102E80000BD00192009323000200064802F03CFFA1
:102E90000120FFF7CBFF044BF1E7034AF1E7C046FF
:102EA000189F0010289F001000AB001070B52B4B2E
:102EB0002B4A1A602B4B2C4A1A602C4B9A682A4BCF
:102EC0009343FAD12A4C2B4B9C4202D208CC984710
:102ED000F9E7FFF70DFE234B274A1A60234B9B6847
:102EE000DB43DB01FAD1254B40229A675A671A6708
:102EF000DA66234C09E0234B234A87212348FFF756
:102F0000B7FF2000FEF720FC0834214B9C4209D279
:102F10002368002BF5D0012BEDD12000FEF721FC1A
:102F20000834F2E71B4CA1681B4DC022280002F0B8
:102F300093FDA560EFF30583002B00D000BEFEF7E4
:102F40007BF8FEF7D7FBFEF76FFF144C144B9C4247
:102F500002D208CC9847F9E770BDC04600E00040B7
:102F6000BFCDFBFE00F00040FE7F3C0000C00040F3
:102F70001817002028170020FFFFFF0100F0014074
:102F800010170020589F0010DC9F0010789F001041
:102F90001817002000ED00E0000000202817002096
:102FA000301700200FB400B583B0084802F07CFE53
:102FB000049B002B07D005A90191180002F084FEA4
:102FC000034802F071FE0120FFF730FFC89F001098
:102FD000D89F0010704710B5002802D00B684968D0
:102FE000984710BD010000200A681378303BDBB21F
:102FF000092B08D883001B185B00501C0860107850
:10300000C0183038F0E77047F0B5DE4657464E46F8
:103010004546E0B583B093461F000C9B9A460D9C35
:103020000E9B99460F9B9B0703D0B8460F000600E6
:1030300022E00192A34688464E46B9460700B442B4
:1030400007D2551C4B4641462020B84701342A0080
:10305000F5E73D004F465C46019B9B46B146464620
:10306000B84637002E0007E0013C551C5346185D5A
:1030700043463900B0472A00002CF5D135003E0008
:1030800047460F9B9B0707D4100003B03CBC9046FB
:103090009946A246AB46F0BDB0464E46B9462F0013
:1030A0005D46531BB342EFD2541C4B464146202091
:1030B000B8472200F5E7F0B5CE46474680B585B063
:1030C000944698460C9D0D9C0EAB1B789946109A21
:1030D000119B129EB7071BD4002B08D0F70706D50B
:1030E0004F46002F02D10C37374200D0013B9442AB
:1030F00008D21F2C06D830272F550134F7E7302788
:103100002F550134F70703D59C4201D21F2CF6D965
:10311000F70615D5770505D4002C03D0944224D0AA
:103120009C4222D00F9A102A2BD00F9A102A30D00E
:103130000F9A022A35D01F2C02D830222A5501348A
:103140001F2C05D84A46002A31D02D222A55013499
:10315000039602930194009543466246FFF754FF9D
:1031600005B00CBC90469946F0BD621E012C06D0FD
:103170000F9F102F01D01400D4E7023CD2E71400B7
:10318000D0E7B206D1D41F2CCFD878222A550134EB
:10319000D1E7B206CCD51F2CCAD858222A55013403
:1031A000C9E71F2CC7D860322A550134C3E772071C
:1031B00003D52B222A550134CAE73207C8D520226D
:1031C0002A550134C4E7F0B5DE4657464E4645461B
:1031D000E0B593B081468A46089209931CAB10CBA8
:1031E0001B789B461E9D219B9846002C03D11023E3
:1031F00042469A4390468023DB0046461E404246A4
:103200001A4212D0002C22D000260EE03033D9B260
:10321000771C0AAB99552900200000F0D3FFAC427F
:1032200016D31F2F14D83E0004002900200000F000
:10323000C9FFCBB2092BE9D94246920605D54121F7
:10324000C918C9B20A39C9B2E2E76121F8E7270013
:1032500043460693209B05931F9B049303955B466F
:10326000029301970AAB0093099B089A514648467E
:10327000FFF721FF13B03CBC90469946A246AB46EF
:10328000F0BDF0B5DE4657464E464546E0B595B032
:10329000089009910A920B931E9E1F9C20AB1B78ED
:1032A0009B46229B9946239D269B9A4633002343A7
:1032B00003D1103352469A4392468023DB0057468F
:1032C0001F4052461A4219D0330023432DD0002705
:1032D00014E03033DAB27B1C98460CABDA554A4620
:1032E0002B003000210000F0ABFFA5421FD819D001
:1032F00043461F2B1BD8474606000C004A462B00AE
:103300003000210000F09CFFD3B2092BE1D95246D6
:10331000920605D54122D218D2B20A3AD2B2DAE7E1
:103320006122F8E7B145E3D901E00023984653460E
:103330000693259B0593249B04934B4603935B467E
:103340000293434601930CAB00930B9B0A9A099995
:103350000898FFF7B0FE15B03CBC90469946A246CF
:10336000AB46F0BDF0B5DE4657464E464546E0B5A5
:1033700091B083468A460C9298461A9C08941B9DED
:10338000099522002B002000290001F0F0F9002807
:1033900000D0E5E001225242D34B2000290001F089
:1033A000E1F9002800D0DBE001225242CF4B20009F
:1033B000290001F0C1F9002800D0D1E0002200234B
:1033C000089D2800099E310001F0B6F9002800D0C0
:1033D000DDE008980999069007918023DB001E9A8A
:1033E0001A400D921E9A1A4201D106231C93069888
:1033F000079904000D000A000600024300D1CDE049
:10340000080D4005400DBA4CA44660440A03120B57
:10341000B84B13431F0001F0BDF9B74AB74B01F099
:1034200048F9B74AB74B01F01DF904000D0000221E
:10343000B54B3000390001F00CF9B44AB44B01F03F
:1034400038F902000B002000290001F00BF901F00F
:10345000B9F9814601F09EF904000D00AD4AAE4B6A
:1034600001F027F90022AD4B01F0FCF801F0AAF9B8
:103470000600AB4AAB4B2000290001F01AF904000A
:103480000D00300001F086F9A74AA84B01F011F9B0
:1034900002000B002000290001F0DBF804000D0001
:1034A00002000B0001F005F90A900B91A04BF318F4
:1034B00000261F0522002B002000290001F0D2F871
:1034C0000E900F9122002B0000208021C90501F0F1
:1034D000C0F804000D000022964B0A980B9901F0E9
:1034E000CAF80022944B01F0BDF802000B000A98C4
:1034F0000B9901F0C0F80022904B01F0B3F80200E4
:103500000B000A980B9901F0B6F802000B0020009E
:10351000290001F0A7F802000B000E980F9901F0A6
:10352000AAF80022734B01F09DF832003B0001F035
:10353000C0F806000F0004000D00069A079B01F07A
:1035400011F900282CD001235B429C46E144002263
:10355000794B3000390001F08EF804000D001FE0B7
:103560001E9B04931D9B03931C9B0293089A099B2B
:103570000092019343460C9A5146584600F0F8F8E1
:1035800011B03CBC90469946A246AB46F0BD0695AC
:1035900080231B069C46664407961EE70023994637
:1035A0004B466333C62B1FD804261E9B1B0527D50D
:1035B0002B00234310D0624A624B0698079901F012
:1035C000C9F8002800D183E000225F4B06980799D4
:1035D00001F0B2F800287BD01C9B4B4506DD4A4623
:1035E000981A431E1C9303E00526DEE700231C9374
:1035F0008023DB001E9A1A431E9200260023994660
:103600001D9B9E426ED29F1B02231E9A1A400A9255
:103610001E9A134202D0002E00D000274B46002BEA
:1036200007D022002B000698079901F024F8069095
:103630000791002200230898099901F07DF80028DD
:1036400000D085E0414B1E9A1340049303971C9BC6
:103650000293069B079C0093019443460C9A5146A3
:10366000584600F085F8002E00D189E71E9B9B0686
:103670007AD54525441C4346020051462800D847C8
:103680004B46DA179B18534005220592013E0496DB
:10369000002203920A3202924A46D00F0190009310
:1036A0004346220051465846FFF78DFD0A9B002BEA
:1036B00000D165E702005F460C9E1D9D931BAB4247
:1036C00054D2541C434651462020B8472200F5E707
:1036D0001C9B002B94D00D9B002B91D01C9B013B7D
:1036E0001C938DE700278FE7FFFFEF7FFFFFEFFFC2
:1036F00001FCFFFF0000F03FFB799F501344D33FD4
:10370000B3C8608B288AC63F0000F83F61436F63EF
:10371000A787D23F71A379094F930A400000E03F89
:103720001655B5BBB16B0240EF39FAFE422EE63FAB
:10373000FF03000000002C4000002440000018405F
:103740002D431CEBE2361A3F80842E41FFF7FFFF2A
:10375000069C079D220029008020000684466144C3
:103760000B00069207936DE7652583E7100007E7D6
:10377000F0B5DE4657464E464546E0B595B0069054
:10378000079193469946209F1E9A1F9B100019008F
:1037900000F0EDFF002831D101225242BF4B1E98AC
:1037A0001F9900F0C9FF002837D101225242BC4BBB
:1037B0001E981F9900F0D6FF00283DD10022B94B7A
:1037C0001E981F9900F0CEFF002850D10022B64B62
:1037D0001E981F9900F0B0FF002848D10022002356
:1037E0001E981F9900F0A8FF002850D1002398468A
:1037F000229B5B0500D4B6E0002458E0229B039393
:10380000219B029303230193A84B00934B465A46F6
:1038100007990698FFF7F8FB0EE1229B0393219B83
:10382000029304230193A24B00934B465A460799F7
:103830000698FFF7E9FBFFE00423229A1A40229939
:103840000B4210D09B4B002A0FD0042222990391E7
:1038500021990291019200934B465A460799069886
:10386000FFF7D2FBE8E0944BEDE70322EEE7229B63
:103870000493219B039302971E9B1F9C009301942A
:103880004B465A4607990698FFF76CFDD4E01E9AFE
:103890001F9B0020002100F0DCFE1E901F910123E1
:1038A0009846A5E70CAB30221A55013F01341F2C76
:1038B00001D8092FF6D81E981F9900F083FF050044
:1038C00000F068FF02000B001E981F9900F0C1FE77
:1038D000FA007A4B9B181A685B680A920B9300F007
:1038E000E8FE0890099100F091FF060000F04EFFFD
:1038F00002000B000898099900F0ABFE08900991AE
:1039000000226F4B00F02EFF00282ED00136300031
:1039100000F03CFF02000B000A980B9900F012FF28
:10392000002801D001350026002F2CD1280000F0FE
:1039300031FF02000B001E981F9900F08AFE06005E
:103940000F0000225E4B00F0F7FE002842D100225B
:103950005B4B3000390000F005FF00283AD1EB073F
:1039600038D5013536E0062746E70022544B089843
:10397000099900F0E1FE0028D6D1002E01D0F3070E
:10398000D2D50136D0E7AA461F2C11D8013F0A2113
:10399000300000F017FC651C30310CAB19550A21C2
:1039A000300000F00FFC092E26D906002C00EBE7B2
:1039B000554604E00CAA302111551F0001341F2C7C
:1039C00002D87B1E002FF5D11F2C03D80CAB2E2262
:1039D0001A5501341F2C14D80A21280000F0CAFB04
:1039E000661C30310CAB19550A21280000F0C2FBCF
:1039F000051E05D03400EDE72B0055461C00DEE720
:103A000034000323229A1340012B1CD01F2C06D80C
:103A10004346002B32D00CAB2D221A550134229B89
:103A20000393219B029301940CAB00934B465A469F
:103A300007990698FFF7E8FA15B03CBC90469946FE
:103A4000A246AB46F0BD219B002B13D04346002B72
:103A500002D10C3313420FD0219B013B219319005B
:103A600003E00CAB30221A5501348C42CED21F2C0D
:103A7000F7D9CBE72199F8E72199F6E7229B5B0775
:103A800004D50CAB2B221A550134C8E7229B1B0727
:103A9000C5D50CAB20221A550134C0E7FFFFEFFF5C
:103AA000FFFFEF7F65CDCD4165CDCDC1F89F001003
:103AB000FC9F0010F09F0010EC9F0010E8A1001088
:103AC0000000E03FF0B5DE4657464E464546E0B5BD
:103AD00093B082468B4690461193002900D1ECE2C8
:103AE00000275546119B1878002800D1E8E22528C8
:103AF00009D07C1C43463A005946A847119B013324
:103B000011932700EEE70133119300241DE00B0011
:103B1000303BDBB2092B37D92A293AD000230A934C
:103B2000119B1A782E2A44D000239A46119A1378B2
:103B3000683BD9B2122900D980E08B00CB49CB5821
:103B40009F4601231C4301321192119A11780B00F8
:103B5000203BD8B21028DAD88300C548C3589F4606
:103B600002231C4301321192EFE704231C4301326C
:103B70001192EAE708231C4301321192E5E7102372
:103B80001C4301321192E0E711A8FFF72BFA0A90CB
:103B9000C6E71C9B1A1D1C921868002804DB0A90BB
:103BA000119B01331193BBE702231C4343420A9349
:103BB000F6E78022D20014435A1C11925A7813005F
:103BC000303BDBB2092B04D92A2A07D000239A46BE
:103BD000ACE711A8FFF706FA8246A7E71C9B1A1D5F
:103BE0001C921868002804DB8246119B0133119354
:103BF0009CE70020F8E780235B002343511C1191D0
:103C000052786C2A01D01C0018E0C0239B001C4392
:103C10000131119112E080232343511C11915278FC
:103C2000682A01D01C0009E0C0231C430131119116
:103C300004E080235B001C4301321192119B187831
:103C40000300253BDAB2532A00D92CE29300894ABB
:103C5000D3589F4680239B001C4301321192EDE70D
:103C600080235B001C4301321192E7E7782809D0DA
:103C7000582838D06F2838D0622838D010239C4379
:103C80000A2600E01026582833D0692803D064287B
:103C900001D00C229443630501D501229443692885
:103CA0002AD0642828D0A30500D59FE0E30500D5DD
:103CB000B8E0630600D4CAE01C9A111D1C9111687B
:103CC000FF220A4005940A9B0493534603930296ED
:103CD00000230193009243463A0059462800FFF71B
:103CE00072FA070027E01026CDE70826CBE7022668
:103CF000C9E720221443C8E7A30520D4E30550D424
:103D0000630666D51C9A111D1C911168FF220A409A
:103D1000D317D118594005940A9B04935346039333
:103D20000296D20F0192009143463A00594628006C
:103D3000FFF749FA0700119B01331193D2E61C9B50
:103D4000DA1D07218A43110008311C91116853685C
:103D50009C46DB170C930D930C9A0D9B100048406A
:103D60000E90624653400F930E980F990C9A0D9B3C
:103D7000801A99410E900F9108940A9B079353461D
:103D800006930496002305936346DA0F029200908F
:103D9000019143463A0059462800FFF772FA07009E
:103DA000C9E71C9A111D1C911268D317D1185940EC
:103DB00005940A9B0493534603930296D20F0192F3
:103DC000009143463A0059462800FFF7FCF90700E6
:103DD000B1E7230605D51C9A111D1C910023D25E64
:103DE00096E71C9A111D1C91126891E71C9BDA1D25
:103DF00007218A43110008311C9108940A9B0793FC
:103E0000534606930496002305930293136854685F
:103E10000093019443463A0059462800FFF731FACF
:103E2000070088E71C9A111D1C9105940A9B0493B6
:103E3000534603930296002301931368009343466D
:103E40003A0059462800FFF7BEF9070073E723063A
:103E500006D51C9A111D1C9112681204120C31E730
:103E60001C9A111D1C9112682CE7C04604A000107A
:103E700050A0001094A0001046281AD01C9B0733B5
:103E8000072293431A0008321C9204940A9A039260
:103E9000524602925C681B680093019443463A00C4
:103EA00059462800FFF764FC0700119B013311936A
:103EB00018E620231C43E1E7672801D0472802D1F8
:103EC00080231B011C43452801D0472801D1202312
:103ED0001C431C9B0733072293431A0008321C9291
:103EE00004940A9A0392524602925C681B680093FB
:103EF000019443463A0059462800FFF733FA070079
:103F0000119B01331193EDE502231A0022409246E2
:103F100023421FD001241C9B1A1D1C927A1C91461F
:103F2000187843463A005946A8475346002B16D105
:103F3000119B013311934F46D4E5561C4346594615
:103F40002020B847230032005C1C9D42F5D83D007C
:103F50001700E0E701233A002F000A9DF4E74A46E4
:103F6000A9460A9D06E0571C434659462020C847EB
:103F700034003A00661CA542F5D84D469146D7E775
:103F80001C9B1A1D1C921B6899465346002B00D19E
:103F9000013B4E4601E0013613003278002A02D080
:103FA0005A1E002BF7D14B46F21A10928023DB00E9
:103FB00026001E401C4203D0524501D9534610939F
:103FC00002231A0022400B92234205D03A00370008
:103FD0004C46A946554620E03A00109B5F46B34642
:103FE0002E0006E0551C434639002020B047230030
:103FF0002A005C1C0A999942F4D835005E46BB46FB
:10400000109437004C46A946554606E01D00013481
:10401000561C43465946C84732002078002804D031
:10402000002FF4D06B1E002DF0D117004D460B9BD6
:10403000002B03D1119B0133119353E50A9F109B71
:1040400006E0561C434659462020A847230032006C
:104050005C1C9F42F5D81700ECE721231C431C9BF6
:104060001A1D1C921B680093059408230493534661
:104070000393102302930023019343463A005946C9
:104080002800FFF7A0F80700119B0133119329E5E1
:104090007C1C43463A0059462520A847119B013312
:1040A000119327001EE57C1C43463A005946A84759
:1040B000119B01331193270014E50B4B9A460FE532
:1040C000AA4647450DD343465A1E4346594600204B
:1040D000D047380013B03CBC90469946A246AB4648
:1040E000F0BD3A00F1E7C046D52F001000B585B00D
:1040F000029003910121009313004A4202A9024851
:10410000FFF7E0FC05B000BDD72F001001480421E7
:10411000014B1847600E00203D41001010B5010012
:1041200018231B8814221088984710BD10B5010071
:1041300018231B8816221088984710BDF0B5C64674
:1041400000B507000E0000250123984600E0013568
:10415000B5420AD2AC003C192068FFF7DFFF2060AF
:104160000028F4D100239846F1E7404604BC90466D
:10417000F0BD0000124A936F9B0815D29066D1667D
:10418000002905D0FFE7FFE7FFE7516F106F704789
:1041900004B580210906C2175140002800D0C84349
:1041A00005F0E2F8002104BDF0B5146E556E576FAE
:1041B000166FFFF7E3FF1466556657671667F0BD85
:1041C000000000D0114A936F9B0813D2106651660D
:1041D000002905D0FFE7FFE7FFE7516F106F704739
:1041E00004B5002801D00020C04305F0BDF800212F
:1041F00004BDC046F0B5146E556E576F166FFFF7CD
:10420000E5FF1466556657671667F0BD000000D0DD
:1042100094464A4A926F9208624601D228E0C0460C
:10422000F0B5464E346E756E776F366F00F020F83D
:104230009446424A14665566576716676246F0BD53
:1042400094463E4A926F9208624601D254E0C046BC
:10425000F0B53A4E346E756E776F366F00F04CF8ED
:104260009446364A14665566576716676246F0BD2F
:10427000002B24DB11D000293EDA00B5C9434042AF
:1042800000D1013100F038F8C943404200D101317A
:10429000DB43524200D1013300BD002AEBD100289C
:1042A00001D1002905D00020C90FC90701D1C043A1
:1042B000410800B505F050F80022002300BD00B50C
:1042C00000290ADBDB43524200D1013300F014F82D
:1042D000C943404200D1013100BDC943404200D131
:1042E0000131DB43524200D1013300F005F8DB43DA
:1042F000524200D1013300BD002923D1002B18D137
:10430000002A0CD0BC460D4F38667A660021002387
:10431000FFE7FFE7FFE77A6F386F674670470028CF
:1043200001D00748010000B505F016F8002200236F
:1043300000BD02000B00002000217047000000D0EB
:10434000FFFFFFFF002B00D0BFE0130C28D1002A95
:10435000E7D080B4114F39667A66FFE7FFE730B4E3
:10436000040C7B6F396F1B0423433B667A66FFE7BF
:10437000FFE7FFE7C04684B27B6F3D6F1B0423431A
:104380003B667A66FFE7FFE7C04600232C042D0C4E
:104390007A6F386F00196941B0BC7047000000D0D7
:1043A000F0B594460025140E01D112020835140F01
:1043B00001D112010435940F01D192000235D40FBE
:1043C00001D152000135D40B0134254F7C66254CB8
:1043D0003C660E0C93B2FFE7FFE7FFE73C6F6643D6
:1043E000360C7703BE467343DF0B5B04C01AB9413A
:1043F000130C7343DB18C91ACE086643360CB64457
:1044000093B273431F0F1B01C01AB941130C7343BE
:104410001F0B1B05C01AB941860D8F023E43664330
:10442000360C092D24DB520A7243801A7703460AA0
:104430006643360C16235B1BDE40DF40BF19644623
:104440006643821B7046043506330100D940A840FC
:10445000C01900D30131A24206D20023F0BD0000F2
:10446000000000D0FFFFFFFF121B0130F3D3F1E784
:1044700009277F1BFE406446A2B27243801A00D215
:104480000139220C7243130C1204821A99410B0059
:104490007046043513370100F940A840801900D355
:1044A0000131002B02D1A2420AD2F0BD013000D36B
:1044B0000131121BFAD2013BF8D1A24200D2F0BD69
:1044C000013000D30131121BF7E7F0B51C0C00D00E
:1044D00080E00CB400251C0A04D11B02160E3343E5
:1044E000120208351C0B04D11B01160F33431201B5
:1044F00004359C0B04D19B00960F33439200023588
:10450000DC0B02D192185B4101351C009718644105
:104510000134464F7C66464C3C660E0CFFE7FFE7D5
:10452000FFE7C0463C6F6643360C7703BE4697B242
:104530007743C01B00D20139C01B00D201399FB2A2
:104540007743C91BC91B170C77437E04FF0B801BE5
:10455000B941CE086643360C0C2D33DBB644120B42
:104560001F053A431B0B97B27743C01B00D201399A
:104570009FB27743C91B170C77433E043F0C801B47
:10458000B941860D8F023E43664329277F1BFE40BB
:104590000C3D7746AF40BF1930BCA2B2ABB27243FC
:1045A0007343801A9941220C7243130C1204801A2F
:1045B000994102000B000137001BA941F9D2781E76
:1045C0000021F0BD0C277F1BFE4077467F0BAF40DC
:1045D000FF19E0E700245D1C07D0144F7D663966A3
:1045E000FFE7FFE7FFE7FFE73C6F95B29EB2654349
:1045F0006643401BB141150C1E0C654366433604EF
:104600002F0C3E432D04401BB141994204D20200BD
:104610000B0020000021F0BD01D19042F7D3801A99
:10462000994101349942F2D3F6E70000000000D02E
:10463000FFFFFFFF44464D4656465F46F0B47047C5
:10464000F0BCA046A946B246BB4670474840414030
:10465000484018B41B4B5B68FC46019308BD04DF5F
:10466000234D001018B4174B1B68FC46019308BD7E
:1046700000DF2D4D00109446134A926F920809D224
:10468000624618B40F4BDB68FC46019308BD0CDF93
:10469000E54F00100C4AF0B5146E556E576F166F4B
:1046A0006246FFF7EEFF084A1466556657671667BD
:1046B000F0BD18B4034B9B68FC46019308BD08DFAE
:1046C000894E00104C220020000000D0FFB5504061
:1046D0004240504059404B40594000E0FFB5154F13
:1046E0004C00640D03D0BC4204D10C0314D800204C
:1046F000090D09055C00640D03D0BC4204D11C0304
:104700000AD800221B0D1B0501264B4009D44B4043
:1047100003D58B4200D18242FFBD9942FCD1904229
:10472000FFBD0B43DB1803431343F5D0C9434918BE
:10473000FFBD0000FF07000000B5FFF7CFFF80417D
:1047400000BDC04600B5FFF7C9FF01D9002000BD7C
:10475000012000BD00B5FFF7B9FF01D9002000BD61
:10476000012000BD00B5FFF7B1FF804100BD012071
:1047700040054A00121804D85A00121801D8002027
:10478000704701207047002070470000002100287A
:1047900005D17047C1174840401AFAD0C90713B570
:1047A000064B1B6898470CBC441CA2401005120B1A
:1047B0000349091B09051943114310BDF0210020CD
:1047C0001F04000010B54C00620D8023D218DB00DE
:1047D000D21A5B057E2A10DD9E3A13DACC17090344
:1047E000490819435242D140640001341532202A4D
:1047F00005DAD0400843604310BD002010BD0846D4
:10480000604310BDC80FC018013810BD18B4044B68
:104810005B6AFC46019308BD24DF195200100000BA
:104820004C22002018B4044B1B6EFC46019308BDBB
:1048300060DF2753001000004C22002018B4044B06
:10484000DB6FFC46019308BD7CDFB1520010000015
:104850004C220020024A034B00B500F03DFA00BD97
:10486000182D4454FB2119408A0002D3920D092AC5
:1048700008DA18B4064BDB6BFC46019308BD3CDF3D
:104880007B54001000B5FFF7E5FF04BC9646F0E747
:104890004C2200208A0002D3920D092A08DA18B4AB
:1048A000064B1B6CFC46019308BD40DF8B54001087
:1048B00000B5FFF7CFFF04BC9646F0E74C2200207E
:1048C0008A0002D3920D092A1DDA9446114A926F8A
:1048D000920809D2624618B40F4B5B6CFC460193F8
:1048E00008BD44DF5B5400100A4AF0B5146E556EE3
:1048F000576F166F6246FFF7EEFF064A146655665D
:1049000057671667F0BD00B5FFF7A4FF04BC9646D5
:10491000DBE70000000000D04C22002018B4044B5C
:104920009B6DFC46019308BD58DF795500100000CF
:104930004C22002070B513231C78012C0CD0012CC4
:1049400013DC022C02DC1F4A1F4B9A641F48FFF73E
:10495000E5FB1F4B186070BD00231F2BEFD899009B
:104960001848194A88500133F7E71A48FFF7DEFB69
:1049700005001948FFF7DAFB023803789B007F2B0C
:1049800019DD80222900104801F066F8022CD8D1E8
:10499000124B1A88B5231B029A4209D1104B1A8870
:1049A000104B9A4204D1104B1A88104B9A42C8D02F
:1049B0000020FEF7F7FA0E4B0E4A32210E48FEF7A2
:1049C00057FAC046E94C00104C2200204C3300003E
:1049D000F0210020534400005346000054380000EA
:1049E000D8380000494600009C38000059460000B5
:1049F00038A20010E4A200108CA20010F0B5DE4630
:104A000057464E464546E0B585B004000D0000927D
:104A100001930E9B9A46002B09DD019B1911012081
:104A20004042FFF7CFFB039000239B462CE000237E
:104A30000393F9E70C239946AB11039A53431D22C4
:104A40004946521A134101335B10984620225242C4
:104A50008B1821D422009A40170023004A46934025
:104A60001E004346D917009A019B404600F08EFE77
:104A700034003D00241A8D415B464A46934043442E
:104A80009B4653469B1A9A465346002B0EDD5346CF
:104A90000C2BCFDCD146CFE720235B1A2200DA4073
:104AA00013002A008A4017001F43D6E7009A019B93
:104AB000AB4209DC01D1A24206D8009A019BA41A9C
:104AC0009D4101239C46E344009A019BAB4209DCD3
:104AD00001D1A24206D8009A019BA41A9D4101234C
:104AE0009C46E344002D0FDB002D16DB0F9B002BB3
:104AF00001D05A461A602000290005B03CBC9046FF
:104B00009946A246AB46F0BD009A019BA4185D41B0
:104B100001235B429C46E344E6E7009A019BA4180C
:104B20005D4101235B429C46E344DFE770B50B0D1A
:104B3000084A934207D0084A934207D00022074B05
:104B4000FFF7ECFE70BD06480649FBE7044806493E
:104B5000F8E7C046FF070000FF0F00000000F03F2D
:104B6000182D4454FB21F93FFB21F9BFF0B5CE4687
:104B700000B588B005900E0011001F0002000491DE
:104B8000F30F9C46330D5B055B0D35032D0B802425
:104B90006403100025432900FA0F91463A0D52058F
:104BA000550D3A03120B049F0297144303940E9A77
:104BB000002A02D000220E9C2260444A934273D005
:104BC000002D74D0002B00D179E0954200D179E01E
:104BD0006A1E9A4200DD77E041D06246002A04D086
:104BE00006000F0000217042B94107AA01925B1B29
:104BF0000093029A039BFFF701FF06000F000300DA
:104C00000C009B197C412200029803998C420BDC1A
:104C100001D1834208D802998B420CD1039B9A425E
:104C200009D1079BDB0706D5029B039CF61AA74117
:104C3000079B013307934B46002B02D0079B5B4237
:104C400007930E9B002B01D0079A1A60204A521B33
:104C500030003900FFF7E6FD05000E0029E0039B58
:104C600099420EDD6346002B13D1029E039FB619B5
:104C70007F41801BB94106000F00013307931500E7
:104C8000D9E7029B039CA14201D19842EAD8059D35
:104C90000FE0029E039FB6197F41361A8F41012310
:104CA0005B4207931500C6E700250A4E01E0002588
:104CB000084E2800310008B004BC9146F0BD002524
:104CC0000026F6E7059DF4E7059DF2E7FF070000E3
:104CD000330400000000F07F10B582B0002400947F
:104CE000FFF744FF02B010BD07B56046002800D1B1
:104CF00000BE01880A0A0230DF2AFAD1C9B282084E
:104D000004D3028840880004104300E00068024A8F
:104D10005050039007BD00004C2200200FB403BC8C
:104D20000CBCF0B50124E407634000E0F0B50C0DC5
:104D3000CF0F661E3605891B640503D3C943404265
:104D400000D30131640D03D0661CF60A07D0E41BC2
:104D500000207F00791C89078912803C24031D0DE7
:104D6000DF0F6E1E36059B1B6D0503D3DB435242DE
:104D700000D301336D0D03D06E1CF60A07D0ED1B76
:104D800000227F007B1C9B079B12803D2D032F1B65
:104D9000661B58D4A446202E46DA20371400BC40A7
:104DA0001D00BD40F24033412A4380185941CB0FCA
:104DB00005D0C943C043002264425041514162467C
:104DC0004D0D28D10D0D07D100281FD024194041C9
:104DD0004941013A0D0DF9D0640006D3013000D3EA
:104DE0000131002C01D140084000013A0BD4941C41
:104DF000E40A04D112051144DB071944F0BDD907B8
:104E0000204B194300E0D9070020F0BD0029DDD177
:104E1000002CDBD1F0BD0132C6074008CD07284386
:104E20004908002EE1D0D9E73C2E29DA203E403750
:104E30001400BC4000D00124F24014431A00BB40CF
:104E40001C43D317ACE7AC46202F08DA2036040009
:104E5000B4400D00B540F84039412843A5E73C2F48
:104E60000CDA203F40360400B44000D00124F84062
:104E700004430800B1400C43C117EAE710001900D1
:104E8000002494E70000F07FF0B50C0D661E360597
:104E9000891BE60A6405640D02D0651CED0A04D086
:104EA000002001210905803C2403A4461C0D671E37
:104EB0003F05DB1BE70A6405640D02D0651CED0AA3
:104EC00004D0002201231B05803C24037740644466
:104ED00097B484B296B27443070C7E43150C6F43AB
:104EE00080B26843361802D3012000043F18300412
:104EF000350C00197D41844688B29AB250430C0C9F
:104F000062431F0C7C438EB27E43921902D301266A
:104F10003604A4191604170C3618674101BC81B277
:104F20009AB25143040C62431B0C5C4380B2584359
:104F3000121802D30120000424181004130C401886
:104F400063412D185E410020474106BC88B293B2F0
:104F500058430C0C6343120C544389B251435B1801
:104F600002D301210904641819041A0C09186241BA
:104F70006D1856410020474118BCF902720D1143CB
:104F8000F0026A0D1043ED020A0D03D16D19404184
:104F90004941013B124E9B1B7600B3420ED26D007D
:104FA00007D30130002671416646354301D14008E0
:104FB00040001B05C918E4072144F0BD0BDA01339A
:104FC00006D1013004D101314F0D01D04908F2E77B
:104FD000E1070020F0BD013631050020EBE70000BD
:104FE000FF030000F0B51C0D671E3F05DB1BE70A41
:104FF0006405640D02D0661CF60A04D00022012369
:105000001B05803C2403D0252D060026F6432E6682
:105010001E096E66CE0FF619B44649004F0D02D038
:105020007E1CF60A03D000200021403F3F033E1BB8
:10503000B600B444013F7F05C91B49082E6F0136F5
:1050400076089C02950D25437543ED137543AD130A
:1050500001356D10F603761B0CB4CC02450D2C43C4
:10506000A2B2B3B25A43270C7B43350C6F43A4B2B0
:105070006C431B1902D3012424043F191C041D0C8A
:10508000A4187D4124196D41009A91B2ACB26143DC
:10509000170C7C432B0C5F4392B25A43A41802D3E3
:1050A00001221204BF182204230C52187B41019CD8
:1050B0006C431B19520ED9010A434401A01A81B254
:1050C000B2B2514303145A43360C734387B2774349
:1050D000D617D21900277E4136049B191704160CE7
:1050E0007F185E417316ED18F30100268033754179
:1050F000A90F06D16400690AE8055B0A184309D2C2
:105100002FE00422944480337541A90AA8059B0A24
:10511000184326D3404149412404009A019B0D00C5
:105120005543641B4343E41A95B286B27543170C8A
:105130007E43030C5F4392B25A43B61802D3012256
:105140001204BF183204330C52197B4152429C4165
:10515000002C02D40022013051414008CA071043FC
:10516000490802B06246D7079210084BD218084B84
:105170009A4203D212058918C919F0BD0020002AED
:1051800001DC3900F0BD01331905F5E7FD0300002E
:10519000FE070000624618CA94465A46002A20DBE1
:1051A00004E0624618CA944600291ADAC018614120
:1051B0005B463B415C46B4405246FA40224344467B
:1051C0004D4662416B41904699462B46B3403D4166
:1051D000FC401C4352465B46A241AB4192469B4673
:1051E0007047C01AA1414B463B414C46B440424631
:1051F000FA40224354465D4662416B4192469B46CB
:105200002B46B3403D41FC401C4342464B46A24125
:10521000AB41904699467047002200B5203200F01D
:1052200010F8080000BD002200B500F00CF8CA1705
:105230009A4200D100BDD8430121C907414000BDB9
:1052400000220B150AD410B5944600F0A7F81414E8
:10525000013400DA0021CB17144C20470020002134
:1052600070476244343A0CD40C2A07DA04009140A7
:10527000904052422032D440214310BDD843D943FC
:1052800010BD203207D40C469440524220321141C6
:10529000D040204310BD0800C917203203D4524229
:1052A0002032104110BD1800190010BD63520010CB
:1052B0004A00520D144BD21A13DDFF2A1EDAD20512
:1052C000CB0FDB071A43C300400F0903490A084309
:1052D00010435B0001D301D0013070474308FBD27B
:1052E000704702D0C80FC00770470A03121301327B
:1052F000F8D1420F072AF5D1012200E0FF22C80FA2
:1053000000028018C00570478003000000210A00D9
:10531000002104E000210A00C11704E0002200235C
:1053200006E0C0460022CB1758405940C01A9941A8
:1053300030B5184CA21A002903D1010010D000206A
:10534000203A4C1512D104D2013A001849414C0DB3
:10535000FAD3114CA24204D212058918DB07C918EE
:1053600030BDD243520D00200021F5E703D4013AAD
:1053700000184941FBD50B324405C00A4D052843AE
:10538000C90A640003D0002460416141E1E7E0D331
:105390004408F8E732040000FE0700000A0DCC0FB5
:1053A000531E1B05C91A520503D3C943404200D3FB
:1053B0000131520D03D0531CDB0A07D0121B002011
:1053C0006400611C89078912803A1203014BD21ACA
:1053D00070470000FF030000023225D40C2A1CDABB
:1053E0001125AD1A0B002B41083207350600EE409F
:1053F000904091403143F0CC63431A1500235A4149
:10540000554356435743BF02F41276057619674158
:10541000ED177F19801BB94170470C220020C91776
:10542000490001310905DBE70902030E19430002B7
:105430005342203208D40C0019419440D8402043F4
:1054400000225041514170470800C917203B2032CB
:10545000F1D50020002100227047F0B5FFF7EAF8EF
:1054600000F01EF8844600F03FF803B4604600F0F8
:1054700059F80CBCFFF7E4F8B5E5F0B5FFF7DAF83A
:1054800000F00EF800F030F806E0F0B5FFF7D2F8C3
:1054900000F006F800F046F8FFF7D2F8F0BD000083
:1054A00000B5FFF77BFF30A4FFF796FF00242C4DDB
:1054B0002C4ED20702D3F6436D426641520004D20D
:1054C000A246A346A846B14603E0A046A146AA4686
:1054D000B3466EA4A44601271F26FFF762FE0137DC
:1054E000013E212FF9D100BD594684B28DB26C43E3
:1054F000061475430B145E4382B25A43AD18EA1783
:1055000000D7D2431204B6182A042B0C1219734187
:10551000404649469D009B17920F2A43904199416E
:105520003E2200E7494684B28DB26C4306147543AF
:105530000B145E4382B25A43AD18EA1700D7D24328
:105540001204B6182A042B0C1219734150465946FE
:105550009D009B17920F2A43504159413E22E2E69B
:10556000BB4DF09DC556F6367D5100001A61140002
:1055700085880A00FB211900F0B5FFF75BF8404D64
:105580000C002C4001D0AC4202D1090D09050020CD
:105590001C002C4001D0AC4202D11B0D1B05002287
:1055A0000026ED02002B04D502266B40694000D492
:1055B00076424F1904D599420CDD0136694003E06B
:1055C000BB4207DA013E6B40070010003A000F00B3
:1055D00019003B0040B4002A0FD1002B0AD05C0018
:1055E0006415013409D14C006415013402D101392C
:1055F000013B02E0002000212EE0FFF7F3FC3E22F9
:10560000FFF712FE82468B460020002180460122D1
:10561000920791461DA4A44601271F26FFF7BAFD55
:105620000137013E212FF9D14A4653460C3A012455
:105630006407002752081B0005D4934100197941E3
:105640006408F7D104E05341001BB9416408F1D16B
:10565000CE0749104008304340BC002E0AD0094C08
:10566000094D01D5E443ED43F60701D10019694125
:10567000001969413D22FFF756FEFEF7E1FFF0BD3C
:105680000000F07F8D305A88A8F64332694FBB6125
:105690000567AC1DB16E4096FCBAAD0F72DB0BAB6B
:1056A000A66EF50739BD9FE576ABFE034B6297BA50
:1056B0005BD5FF01D694DBDDAAFAFF005DEAEE566A
:1056C00055FF7F006E77B7AAEAFF3F00BCBB555578
:1056D000FDFF1F00DEADAAAAFFFF0F006F5555F5B5
:1056E000FFFF0700ABAAAAFEFFFF03005555D5FF39
:1056F000FFFF0100ABAAFAFFFFFF00005555FFFFB7
:10570000FF7F0000ABEAFFFFFF3F000055FDFFFFFA
:10571000FF1F0000ABFFFFFFFF0F0000F5FFFFFFC3
:10572000FF070000FFFFFFFFFF0300000000000075
:105730000002000000000000000100000000000066
:105740008000000000000000400000000000000099
:105750002000000000000000100000000000000019
:10576000080000000000000004000000000000002D
:1057700002000000000000000100000000000080A6
:1057800000000000000000400000000051434343BF
:10579000C9188C46110C83B24B4310B4040C6143FE
:1057A00092B280B2504362431C041B0C001910BC1F
:1057B00059411304120CC018514161447047000054
:1057C00048404140484000239C46114B5B681847C5
:1057D00000239C460E4B1B6818470E4A936F9B088C
:1057E00004D200239C460A4BDB681847F0B5146EC0
:1057F000556E576F166FFFF7F4FF064A146655662D
:1058000057671667F0BD00239C46014B9B681847FD
:105810004C230020000000D0C10FC90700D5404232
:10582000002817D0F44603B40B4B1B68984706BCFE
:1058300081409E384042803107D20B0607D0490094
:10584000490AC0051043084360470130F8E7490A98
:105850008902F5E770470000F021002041000A0EA0
:1058600080231B067E2A0BDD9E3A0BDAC11740020D
:10587000400818435242D040490001314843704724
:1058800000207047C00FC01801387047C0420DD3C8
:1058900000B540004008002100F012F8002801D4B3
:1058A000404200BD8020000600BD0000034BDB69C4
:1058B000FC4618471CDF015A001000004C23002052
:1058C00000239C46014B5B6A184700004C230020D4
:1058D00070B513231D782A48FEF728FC0400012D1B
:1058E00011D0012D09DDA31E1B789B007F2B40DD0D
:1058F00080222100234800F0AFF82348FEF70EFC79
:10590000224B186070BD542201001E4800F0A4F81C
:105910001F4B1A881F4B9A421CD1A7239B011A8840
:105920001D4B9A4216D11D4B1A881D4B9A4211D11C
:105930001C4B1A8894239B019A420BD11A4B1A884C
:105940001A4B9A4206D11A4B1A681A4B9A4201D145
:10595000152307E01848FDF725FB99001748094A69
:10596000885001331F2BF8D9144A064B1A62DA61AA
:10597000B7E7134B134A42211348FDF779FAC046A3
:10598000534600004C2300204C330000F02100203F
:10599000EE290000C40F0000C20D0000962B00008D
:1059A000C0B50000182B0000CC2A000010B5000084
:1059B000FC2C000051ED876400AB0010CD590010A5
:1059C000F8A2001084A300102CA3001007B56046B5
:1059D000002800D100BE01880A0A0230DF2AFAD16D
:1059E000C9B2820804D3028840880004104300E052
:1059F0000068024A5050039007BD00004C2300206D
:105A00000021C2158032803201D0024A10470020A6
:105A100070470000CD2A000010B5040003F020F804
:105A2000002804D00419034B9C4200D810BD024842
:105A3000FDF7B8FA0000042098A3001001480421E3
:105A4000014B1847700E00203D410010014B1B68B0
:105A500018470000700E0020014B5B6818470000DB
:105A6000700E002010B50300080011001B68984755
:105A700010BD0000F8B507000D001600437D002B97
:105A800002D0002400200CE0036811002800984791
:105A90002DE03B7D10E0022115483B689847601CD3
:105AA0000134B44214DA002CF3DD2B19013B1B78CE
:105AB0000D3B5A425341DBB22A5D0A2AF0D1002B3A
:105AC000EED1A042E7DA211A28183B689847E2E7AE
:105AD000B04203DA311A28183B689847002E06DDD9
